{
  "_format": "hh3-artifact-1",
  "contractName": "VincentAlgorithmicStablecoinEngine",
  "sourceName": "contracts/VincentAlgorithmicStablecoinEngine.sol",
  "abi": [
    {
      "inputs": [
        {
          "internalType": "contract VincentAlgorithmicStablecoin",
          "name": "vas",
          "type": "address"
        },
        {
          "internalType": "address",
          "name": "pythContract",
          "type": "address"
        },
        {
          "internalType": "address[]",
          "name": "tokenAddresses",
          "type": "address[]"
        },
        {
          "internalType": "bytes32[]",
          "name": "pythFeedIds",
          "type": "bytes32[]"
        }
      ],
      "stateMutability": "nonpayable",
      "type": "constructor"
    },
    {
      "inputs": [],
      "name": "CombinedPriceOverflow",
      "type": "error"
    },
    {
      "inputs": [],
      "name": "ExponentOverflow",
      "type": "error"
    },
    {
      "inputs": [],
      "name": "InvalidInputExpo",
      "type": "error"
    },
    {
      "inputs": [],
      "name": "NegativeInputPrice",
      "type": "error"
    },
    {
      "inputs": [],
      "name": "ReentrancyGuardReentrantCall",
      "type": "error"
    },
    {
      "inputs": [
        {
          "internalType": "address",
          "name": "token",
          "type": "address"
        }
      ],
      "name": "SafeERC20FailedOperation",
      "type": "error"
    },
    {
      "inputs": [],
      "name": "VincentAlgorithmicStablecoinEngine_AmountMustBeGreaterThanZero",
      "type": "error"
    },
    {
      "inputs": [
        {
          "internalType": "uint256",
          "name": "healthFactor",
          "type": "uint256"
        }
      ],
      "name": "VincentAlgorithmicStablecoinEngine_HealthFactorIsBroken",
      "type": "error"
    },
    {
      "inputs": [],
      "name": "VincentAlgorithmicStablecoinEngine_HealthFactorNotImproved",
      "type": "error"
    },
    {
      "inputs": [],
      "name": "VincentAlgorithmicStablecoinEngine_HealthFactorOk",
      "type": "error"
    },
    {
      "inputs": [],
      "name": "VincentAlgorithmicStablecoinEngine_MintFailed",
      "type": "error"
    },
    {
      "inputs": [],
      "name": "VincentAlgorithmicStablecoinEngine_TokenAddressesAndPriceFeedIdsMustBeSameLength",
      "type": "error"
    },
    {
      "inputs": [],
      "name": "VincentAlgorithmicStablecoinEngine_TransferFailed",
      "type": "error"
    },
    {
      "inputs": [],
      "name": "VincentAlgorithmicStablecoinEngine_UnsupportedCollateralToken",
      "type": "error"
    },
    {
      "anonymous": false,
      "inputs": [
        {
          "indexed": true,
          "internalType": "address",
          "name": "user",
          "type": "address"
        },
        {
          "indexed": true,
          "internalType": "address",
          "name": "token",
          "type": "address"
        },
        {
          "indexed": false,
          "internalType": "uint256",
          "name": "amount",
          "type": "uint256"
        }
      ],
      "name": "CollateralDeposited",
      "type": "event"
    },
    {
      "anonymous": false,
      "inputs": [
        {
          "indexed": true,
          "internalType": "address",
          "name": "from",
          "type": "address"
        },
        {
          "indexed": true,
          "internalType": "address",
          "name": "to",
          "type": "address"
        },
        {
          "indexed": true,
          "internalType": "address",
          "name": "token",
          "type": "address"
        },
        {
          "indexed": false,
          "internalType": "uint256",
          "name": "amount",
          "type": "uint256"
        }
      ],
      "name": "CollateralRedeemed",
      "type": "event"
    },
    {
      "inputs": [
        {
          "internalType": "int64",
          "name": "price",
          "type": "int64"
        },
        {
          "internalType": "int32",
          "name": "expo",
          "type": "int32"
        },
        {
          "internalType": "uint8",
          "name": "targetDecimals",
          "type": "uint8"
        }
      ],
      "name": "_convertToUint",
      "outputs": [
        {
          "internalType": "uint256",
          "name": "",
          "type": "uint256"
        }
      ],
      "stateMutability": "pure",
      "type": "function"
    },
    {
      "inputs": [
        {
          "internalType": "address",
          "name": "token",
          "type": "address"
        },
        {
          "internalType": "uint256",
          "name": "amount",
          "type": "uint256"
        }
      ],
      "name": "depositCollateral",
      "outputs": [],
      "stateMutability": "nonpayable",
      "type": "function"
    },
    {
      "inputs": [
        {
          "internalType": "address",
          "name": "token",
          "type": "address"
        },
        {
          "internalType": "uint256",
          "name": "amountCollateral",
          "type": "uint256"
        },
        {
          "internalType": "uint256",
          "name": "amountVasToMint",
          "type": "uint256"
        },
        {
          "internalType": "bytes[]",
          "name": "pythPriceUpdates",
          "type": "bytes[]"
        },
        {
          "internalType": "uint64[]",
          "name": "pythPublishTimes",
          "type": "uint64[]"
        }
      ],
      "name": "depositCollateralAndMint",
      "outputs": [],
      "stateMutability": "payable",
      "type": "function"
    },
    {
      "inputs": [],
      "name": "getAcceptedCollateralTokens",
      "outputs": [
        {
          "internalType": "address[]",
          "name": "",
          "type": "address[]"
        }
      ],
      "stateMutability": "view",
      "type": "function"
    },
    {
      "inputs": [
        {
          "internalType": "address",
          "name": "user",
          "type": "address"
        }
      ],
      "name": "getAccountInformationBalances",
      "outputs": [
        {
          "internalType": "uint256",
          "name": "totalVasMinted",
          "type": "uint256"
        },
        {
          "components": [
            {
              "internalType": "address",
              "name": "token",
              "type": "address"
            },
            {
              "internalType": "uint256",
              "name": "amount",
              "type": "uint256"
            },
            {
              "internalType": "uint8",
              "name": "decimals",
              "type": "uint8"
            },
            {
              "internalType": "bytes32",
              "name": "priceFeedId",
              "type": "bytes32"
            }
          ],
          "internalType": "struct VincentAlgorithmicStablecoinEngine.TokenBalance[]",
          "name": "balances",
          "type": "tuple[]"
        }
      ],
      "stateMutability": "view",
      "type": "function"
    },
    {
      "inputs": [],
      "name": "getPriceFeedIds",
      "outputs": [
        {
          "internalType": "bytes32[]",
          "name": "",
          "type": "bytes32[]"
        }
      ],
      "stateMutability": "view",
      "type": "function"
    },
    {
      "inputs": [
        {
          "internalType": "address",
          "name": "collateral",
          "type": "address"
        },
        {
          "internalType": "address",
          "name": "user",
          "type": "address"
        },
        {
          "internalType": "uint256",
          "name": "debtToCover",
          "type": "uint256"
        },
        {
          "internalType": "bytes[]",
          "name": "pythPriceUpdates",
          "type": "bytes[]"
        },
        {
          "internalType": "uint64[]",
          "name": "pythPublishTimes",
          "type": "uint64[]"
        }
      ],
      "name": "liquidate",
      "outputs": [],
      "stateMutability": "nonpayable",
      "type": "function"
    },
    {
      "inputs": [
        {
          "internalType": "uint256",
          "name": "amountVasToMint",
          "type": "uint256"
        },
        {
          "internalType": "bytes[]",
          "name": "pythPriceUpdates",
          "type": "bytes[]"
        },
        {
          "internalType": "uint64[]",
          "name": "pythPublishTimes",
          "type": "uint64[]"
        }
      ],
      "name": "mintVas",
      "outputs": [],
      "stateMutability": "payable",
      "type": "function"
    }
  ],
  "bytecode": "0x60e0604052603c60c090815250348015610017575f5ffd5b5060405161332538038061332583398181016040528101906100399190610521565b60015f81905550805182511461007b576040517f9812f5c400000000000000000000000000000000000000000000000000000000815260040160405180910390fd5b5f5f90505b82518110156101c657600183828151811061009e5761009d6105bd565b5b6020026020010151908060018154018082558091505060019003905f5260205f20015f9091909190916101000a81548173ffffffffffffffffffffffffffffffffffffffff021916908373ffffffffffffffffffffffffffffffffffffffff160217905550818181518110610116576101156105bd565b5b602002602001015160035f858481518110610134576101336105bd565b5b602002602001015173ffffffffffffffffffffffffffffffffffffffff1673ffffffffffffffffffffffffffffffffffffffff1681526020019081526020015f2081905550600282828151811061018e5761018d6105bd565b5b6020026020010151908060018154018082558091505060019003905f5260205f20015f90919091909150558080600101915050610080565b508373ffffffffffffffffffffffffffffffffffffffff1660808173ffffffffffffffffffffffffffffffffffffffff16815250508273ffffffffffffffffffffffffffffffffffffffff1660a08173ffffffffffffffffffffffffffffffffffffffff1681525050505050506105ea565b5f604051905090565b5f5ffd5b5f5ffd5b5f73ffffffffffffffffffffffffffffffffffffffff82169050919050565b5f61027282610249565b9050919050565b5f61028382610268565b9050919050565b61029381610279565b811461029d575f5ffd5b50565b5f815190506102ae8161028a565b92915050565b6102bd81610268565b81146102c7575f5ffd5b50565b5f815190506102d8816102b4565b92915050565b5f5ffd5b5f601f19601f8301169050919050565b7f4e487b71000000000000000000000000000000000000000000000000000000005f52604160045260245ffd5b610328826102e2565b810181811067ffffffffffffffff82111715610347576103466102f2565b5b80604052505050565b5f610359610238565b9050610365828261031f565b919050565b5f67ffffffffffffffff821115610384576103836102f2565b5b602082029050602081019050919050565b5f5ffd5b5f6103ab6103a68461036a565b610350565b905080838252602082019050602084028301858111156103ce576103cd610395565b5b835b818110156103f757806103e388826102ca565b8452602084019350506020810190506103d0565b5050509392505050565b5f82601f830112610415576104146102de565b5b8151610425848260208601610399565b91505092915050565b5f67ffffffffffffffff821115610448576104476102f2565b5b602082029050602081019050919050565b5f819050919050565b61046b81610459565b8114610475575f5ffd5b50565b5f8151905061048681610462565b92915050565b5f61049e6104998461042e565b610350565b905080838252602082019050602084028301858111156104c1576104c0610395565b5b835b818110156104ea57806104d68882610478565b8452602084019350506020810190506104c3565b5050509392505050565b5f82601f830112610508576105076102de565b5b815161051884826020860161048c565b91505092915050565b5f5f5f5f6080858703121561053957610538610241565b5b5f610546878288016102a0565b9450506020610557878288016102ca565b935050604085015167ffffffffffffffff81111561057857610577610245565b5b61058487828801610401565b925050606085015167ffffffffffffffff8111156105a5576105a4610245565b5b6105b1878288016104f4565b91505092959194509250565b7f4e487b71000000000000000000000000000000000000000000000000000000005f52603260045260245ffd5b60805160a05160c051612ce761063e5f395f818161106f015261185001525f8181610d8e01528181610e2a01528181611032015261181301525f8181610ca90152818161134d01526114230152612ce75ff3fe60806040526004361061007a575f3560e01c806377317d6c1161004d57806377317d6c14610108578063a5d5db0c14610145578063accc4ebc1461016d578063b72a7e2e146101a95761007a565b80630467f2b71461007e5780630f67fc2c1461009a5780634825fcdb146100c25780635aa15731146100de575b5f5ffd5b61009860048036038101906100939190611bd3565b6101d3565b005b3480156100a5575f5ffd5b506100c060048036038101906100bb9190611c85565b6102f1565b005b6100dc60048036038101906100d79190611d37565b610443565b005b3480156100e9575f5ffd5b506100f26104a0565b6040516100ff9190611e84565b60405180910390f35b348015610113575f5ffd5b5061012e60048036038101906101299190611ea4565b6104f6565b60405161013c929190612012565b60405180910390f35b348015610150575f5ffd5b5061016b60048036038101906101669190612040565b61077c565b005b348015610178575f5ffd5b50610193600480360381019061018e9190612114565b61084f565b6040516101a09190612164565b60405180910390f35b3480156101b4575f5ffd5b506101bd610a4c565b6040516101ca9190612225565b60405180910390f35b6101db610ad7565b855f5f1b60035f8373ffffffffffffffffffffffffffffffffffffffff1673ffffffffffffffffffffffffffffffffffffffff1681526020019081526020015f205403610254576040517f323124b200000000000000000000000000000000000000000000000000000000815260040160405180910390fd5b855f810361028e576040517f549aaaa900000000000000000000000000000000000000000000000000000000815260040160405180910390fd5b855f81036102c8576040517f549aaaa900000000000000000000000000000000000000000000000000000000815260040160405180910390fd5b6102d28989610b1b565b6102de87878787610c3f565b5050506102e9610d82565b505050505050565b835f810361032b576040517f549aaaa900000000000000000000000000000000000000000000000000000000815260040160405180910390fd5b610333610ad7565b61033e848484610d8b565b5f61034887610f61565b90506012600a61035891906123a1565b8110610390576040517faf78932700000000000000000000000000000000000000000000000000000000815260040160405180910390fd5b5f61039b8988610fed565b90505f6064600a836103ad91906123eb565b6103b79190612459565b90505f81836103c69190612489565b90506103d48b828c33611131565b6103df898b336112f7565b5f6103e98b610f61565b9050848111610424576040517fe56b06db00000000000000000000000000000000000000000000000000000000815260040160405180910390fd5b61042d336114ad565b505050505061043a610d82565b50505050505050565b61044b610ad7565b835f8103610485576040517f549aaaa900000000000000000000000000000000000000000000000000000000815260040160405180910390fd5b61049185858585610c3f565b5061049a610d82565b50505050565b606060028054806020026020016040519081016040528092919081815260200182805480156104ec57602002820191905f5260205f20905b8154815260200190600101908083116104d8575b5050505050905090565b5f606060055f8473ffffffffffffffffffffffffffffffffffffffff1673ffffffffffffffffffffffffffffffffffffffff1681526020019081526020015f2054915060018054905067ffffffffffffffff81111561055857610557611a5e565b5b60405190808252806020026020018201604052801561059157816020015b61057e611912565b8152602001906001900390816105765790505b5090505f5f90505b600180549050811015610776575f600182815481106105bb576105ba6124bc565b5b905f5260205f20015f9054906101000a900473ffffffffffffffffffffffffffffffffffffffff1690505f8173ffffffffffffffffffffffffffffffffffffffff1663313ce5676040518163ffffffff1660e01b8152600401602060405180830381865afa15801561062f573d5f5f3e3d5ffd5b505050506040513d601f19601f8201168201806040525081019061065391906124fd565b90505f60045f8873ffffffffffffffffffffffffffffffffffffffff1673ffffffffffffffffffffffffffffffffffffffff1681526020019081526020015f205f8473ffffffffffffffffffffffffffffffffffffffff1673ffffffffffffffffffffffffffffffffffffffff1681526020019081526020015f2054905060405180608001604052808473ffffffffffffffffffffffffffffffffffffffff1681526020018281526020018360ff16815260200160035f8673ffffffffffffffffffffffffffffffffffffffff1673ffffffffffffffffffffffffffffffffffffffff1681526020019081526020015f205481525085858151811061075b5761075a6124bc565b5b60200260200101819052505050508080600101915050610599565b50915091565b610784610ad7565b815f5f1b60035f8373ffffffffffffffffffffffffffffffffffffffff1673ffffffffffffffffffffffffffffffffffffffff1681526020019081526020015f2054036107fd576040517f323124b200000000000000000000000000000000000000000000000000000000815260040160405180910390fd5b815f8103610837576040517f549aaaa900000000000000000000000000000000000000000000000000000000815260040160405180910390fd5b6108418484610b1b565b505061084b610d82565b5050565b5f5f8460070b121561088d576040517f4db089c000000000000000000000000000000000000000000000000000000000815260040160405180910390fd5b7fffffffffffffffffffffffffffffffffffffffffffffffffffffffffffffff018360030b12156108ea576040517f6a345a2800000000000000000000000000000000000000000000000000000000815260040160405180910390fd5b5f838360ff166108fa9190612528565b9050603a8160030b138061093057507fffffffffffffffffffffffffffffffffffffffffffffffffffffffffffffffc68160030b125b15610967576040517f96c1d04c00000000000000000000000000000000000000000000000000000000815260040160405180910390fd5b5f8567ffffffffffffffff1690505f8260030b13156109df575f5f6109988385600a6109939190612592565b61150f565b91509150816109d3576040517f30442cd800000000000000000000000000000000000000000000000000000000815260040160405180910390fd5b80945050505050610a45565b5f5f610a02836109f18660030b611536565b600a6109fd91906125dc565b61154c565b9150915081610a3d576040517f30442cd800000000000000000000000000000000000000000000000000000000815260040160405180910390fd5b809450505050505b9392505050565b60606001805480602002602001604051908101604052809291908181526020018280548015610acd57602002820191905f5260205f20905b815f9054906101000a900473ffffffffffffffffffffffffffffffffffffffff1673ffffffffffffffffffffffffffffffffffffffff1681526020019060010190808311610a84575b5050505050905090565b60025f5403610b12576040517f3ee5aeb500000000000000000000000000000000000000000000000000000000815260040160405180910390fd5b60025f81905550565b610b483330838573ffffffffffffffffffffffffffffffffffffffff1661155f909392919063ffffffff16565b8060045f3373ffffffffffffffffffffffffffffffffffffffff1673ffffffffffffffffffffffffffffffffffffffff1681526020019081526020015f205f8473ffffffffffffffffffffffffffffffffffffffff1673ffffffffffffffffffffffffffffffffffffffff1681526020019081526020015f205f828254610bcf9190612489565b925050819055508173ffffffffffffffffffffffffffffffffffffffff163373ffffffffffffffffffffffffffffffffffffffff167ff1c0dd7e9b98bbff859029005ef89b127af049cd18df1a8d79f0b7e019911e5683604051610c339190612164565b60405180910390a35050565b8360055f3373ffffffffffffffffffffffffffffffffffffffff1673ffffffffffffffffffffffffffffffffffffffff1681526020019081526020015f205f828254610c8b9190612489565b92505081905550610c9d838383610d8b565b610ca6336114ad565b5f7f000000000000000000000000000000000000000000000000000000000000000073ffffffffffffffffffffffffffffffffffffffff166340c10f1933876040518363ffffffff1660e01b8152600401610d02929190612635565b6020604051808303815f875af1158015610d1e573d5f5f3e3d5ffd5b505050506040513d601f19601f82011682018060405250810190610d429190612691565b905080610d7b576040517f1081f82b00000000000000000000000000000000000000000000000000000000815260040160405180910390fd5b5050505050565b60015f81905550565b5f7f000000000000000000000000000000000000000000000000000000000000000073ffffffffffffffffffffffffffffffffffffffff1663d47eed4585856040518363ffffffff1660e01b8152600401610de7929190612822565b602060405180830381865afa158015610e02573d5f5f3e3d5ffd5b505050506040513d601f19601f82011682018060405250810190610e269190612858565b90507f000000000000000000000000000000000000000000000000000000000000000073ffffffffffffffffffffffffffffffffffffffff1663b9256d288286866002876040518663ffffffff1660e01b8152600401610e899493929190612a04565b5f604051808303818588803b158015610ea0575f5ffd5b505af193505050508015610eb2575060015b610f5a573d805f8114610ee0576040519150601f19603f3d011682016040523d82523d5f602084013e610ee5565b606091505b506004815103610f52575f81610efa90612ab4565b905063de2c57fa60e01b7bffffffffffffffffffffffffffffffffffffffffffffffffffffffff1916817bffffffffffffffffffffffffffffffffffffffffffffffffffffffff191603610f5057505050610f5c565b505b805160208201fd5b505b505050565b5f5f5f610f6d846115e1565b915091505f8203610fa2577fffffffffffffffffffffffffffffffffffffffffffffffffffffffffffffffff92505050610fe8565b5f6064603283610fb291906123eb565b610fbc9190612459565b9050826012600a610fcd91906123a1565b82610fd891906123eb565b610fe29190612459565b93505050505b919050565b5f5f60035f8573ffffffffffffffffffffffffffffffffffffffff1673ffffffffffffffffffffffffffffffffffffffff1681526020019081526020015f205490505f7f000000000000000000000000000000000000000000000000000000000000000073ffffffffffffffffffffffffffffffffffffffff1663a4ae35e0837f00000000000000000000000000000000000000000000000000000000000000006040518363ffffffff1660e01b81526004016110ab929190612b29565b608060405180830381865afa1580156110c6573d5f5f3e3d5ffd5b505050506040513d601f19601f820116820180604052508101906110ea9190612c05565b90505f611100825f01518360400151601261084f565b9050806012600a61111191906123a1565b8661111c91906123eb565b6111269190612459565b935050505092915050565b8260045f8473ffffffffffffffffffffffffffffffffffffffff1673ffffffffffffffffffffffffffffffffffffffff1681526020019081526020015f205f8673ffffffffffffffffffffffffffffffffffffffff1673ffffffffffffffffffffffffffffffffffffffff1681526020019081526020015f205f8282546111b89190612c30565b925050819055508373ffffffffffffffffffffffffffffffffffffffff168173ffffffffffffffffffffffffffffffffffffffff168373ffffffffffffffffffffffffffffffffffffffff167fb292db12b8dfa23b760ee5e3bd1d3be184cd8f0eeeacd27ce120d4de4e4721f6866040516112339190612164565b60405180910390a45f8473ffffffffffffffffffffffffffffffffffffffff1663a9059cbb83866040518363ffffffff1660e01b8152600401611277929190612635565b6020604051808303815f875af1158015611293573d5f5f3e3d5ffd5b505050506040513d601f19601f820116820180604052508101906112b79190612691565b9050806112f0576040517f4389553900000000000000000000000000000000000000000000000000000000815260040160405180910390fd5b5050505050565b8260055f8473ffffffffffffffffffffffffffffffffffffffff1673ffffffffffffffffffffffffffffffffffffffff1681526020019081526020015f205f8282546113439190612c30565b925050819055505f7f000000000000000000000000000000000000000000000000000000000000000073ffffffffffffffffffffffffffffffffffffffff166323b872dd8330876040518463ffffffff1660e01b81526004016113a893929190612c63565b6020604051808303815f875af11580156113c4573d5f5f3e3d5ffd5b505050506040513d601f19601f820116820180604052508101906113e89190612691565b905080611421576040517f4389553900000000000000000000000000000000000000000000000000000000815260040160405180910390fd5b7f000000000000000000000000000000000000000000000000000000000000000073ffffffffffffffffffffffffffffffffffffffff166342966c68856040518263ffffffff1660e01b815260040161147a9190612164565b5f604051808303815f87803b158015611491575f5ffd5b505af11580156114a3573d5f5f3e3d5ffd5b5050505050505050565b5f6114b782610f61565b90506012600a6114c791906123a1565b81101561150b57806040517fe296b59e0000000000000000000000000000000000000000000000000000000081526004016115029190612164565b60405180910390fd5b5050565b5f5f5f83850290508415848683041417925061152a83611728565b81029150509250929050565b5f5f60ff83901d90508081840118915050919050565b5f5f5f8311915082840490509250929050565b6115db848573ffffffffffffffffffffffffffffffffffffffff166323b872dd86868660405160240161159493929190612c63565b604051602081830303815290604052915060e01b6020820180517bffffffffffffffffffffffffffffffffffffffffffffffffffffffff8381831617835250505050611733565b50505050565b5f5f60055f8473ffffffffffffffffffffffffffffffffffffffff1673ffffffffffffffffffffffffffffffffffffffff1681526020019081526020015f205491505f90505f5f90505b600180549050811015611722575f6001828154811061164d5761164c6124bc565b5b905f5260205f20015f9054906101000a900473ffffffffffffffffffffffffffffffffffffffff1690505f60045f8773ffffffffffffffffffffffffffffffffffffffff1673ffffffffffffffffffffffffffffffffffffffff1681526020019081526020015f205f8373ffffffffffffffffffffffffffffffffffffffff1673ffffffffffffffffffffffffffffffffffffffff1681526020019081526020015f205490505f8111156117135761170582826117ce565b846117109190612489565b93505b5050808060010191505061162b565b50915091565b5f8115159050919050565b5f5f60205f8451602086015f885af180611752576040513d5f823e3d81fd5b3d92505f519150505f821461176b576001811415611786565b5f8473ffffffffffffffffffffffffffffffffffffffff163b145b156117c857836040517f5274afe70000000000000000000000000000000000000000000000000000000081526004016117bf9190612c98565b60405180910390fd5b50505050565b5f5f60035f8573ffffffffffffffffffffffffffffffffffffffff1673ffffffffffffffffffffffffffffffffffffffff1681526020019081526020015f205490505f7f000000000000000000000000000000000000000000000000000000000000000073ffffffffffffffffffffffffffffffffffffffff1663a4ae35e0837f00000000000000000000000000000000000000000000000000000000000000006040518363ffffffff1660e01b815260040161188c929190612b29565b608060405180830381865afa1580156118a7573d5f5f3e3d5ffd5b505050506040513d601f19601f820116820180604052508101906118cb9190612c05565b90505f6118e1825f01518360400151601261084f565b90506012600a6118f191906123a1565b81866118fd91906123eb565b6119079190612459565b935050505092915050565b60405180608001604052805f73ffffffffffffffffffffffffffffffffffffffff1681526020015f81526020015f60ff1681526020015f81525090565b5f604051905090565b5f5ffd5b5f5ffd5b5f73ffffffffffffffffffffffffffffffffffffffff82169050919050565b5f61198982611960565b9050919050565b6119998161197f565b81146119a3575f5ffd5b50565b5f813590506119b481611990565b92915050565b5f819050919050565b6119cc816119ba565b81146119d6575f5ffd5b50565b5f813590506119e7816119c3565b92915050565b5f5ffd5b5f5ffd5b5f5ffd5b5f5f83601f840112611a0e57611a0d6119ed565b5b8235905067ffffffffffffffff811115611a2b57611a2a6119f1565b5b602083019150836020820283011115611a4757611a466119f5565b5b9250929050565b5f601f19601f8301169050919050565b7f4e487b71000000000000000000000000000000000000000000000000000000005f52604160045260245ffd5b611a9482611a4e565b810181811067ffffffffffffffff82111715611ab357611ab2611a5e565b5b80604052505050565b5f611ac561194f565b9050611ad18282611a8b565b919050565b5f67ffffffffffffffff821115611af057611aef611a5e565b5b602082029050602081019050919050565b5f67ffffffffffffffff82169050919050565b611b1d81611b01565b8114611b27575f5ffd5b50565b5f81359050611b3881611b14565b92915050565b5f611b50611b4b84611ad6565b611abc565b90508083825260208201905060208402830185811115611b7357611b726119f5565b5b835b81811015611b9c5780611b888882611b2a565b845260208401935050602081019050611b75565b5050509392505050565b5f82601f830112611bba57611bb96119ed565b5b8135611bca848260208601611b3e565b91505092915050565b5f5f5f5f5f5f60a08789031215611bed57611bec611958565b5b5f611bfa89828a016119a6565b9650506020611c0b89828a016119d9565b9550506040611c1c89828a016119d9565b945050606087013567ffffffffffffffff811115611c3d57611c3c61195c565b5b611c4989828a016119f9565b9350935050608087013567ffffffffffffffff811115611c6c57611c6b61195c565b5b611c7889828a01611ba6565b9150509295509295509295565b5f5f5f5f5f5f60a08789031215611c9f57611c9e611958565b5b5f611cac89828a016119a6565b9650506020611cbd89828a016119a6565b9550506040611cce89828a016119d9565b945050606087013567ffffffffffffffff811115611cef57611cee61195c565b5b611cfb89828a016119f9565b9350935050608087013567ffffffffffffffff811115611d1e57611d1d61195c565b5b611d2a89828a01611ba6565b9150509295509295509295565b5f5f5f5f60608587031215611d4f57611d4e611958565b5b5f611d5c878288016119d9565b945050602085013567ffffffffffffffff811115611d7d57611d7c61195c565b5b611d89878288016119f9565b9350935050604085013567ffffffffffffffff811115611dac57611dab61195c565b5b611db887828801611ba6565b91505092959194509250565b5f81519050919050565b5f82825260208201905092915050565b5f819050602082019050919050565b5f819050919050565b611dff81611ded565b82525050565b5f611e108383611df6565b60208301905092915050565b5f602082019050919050565b5f611e3282611dc4565b611e3c8185611dce565b9350611e4783611dde565b805f5b83811015611e77578151611e5e8882611e05565b9750611e6983611e1c565b925050600181019050611e4a565b5085935050505092915050565b5f6020820190508181035f830152611e9c8184611e28565b905092915050565b5f60208284031215611eb957611eb8611958565b5b5f611ec6848285016119a6565b91505092915050565b611ed8816119ba565b82525050565b5f81519050919050565b5f82825260208201905092915050565b5f819050602082019050919050565b611f108161197f565b82525050565b611f1f816119ba565b82525050565b5f60ff82169050919050565b611f3a81611f25565b82525050565b608082015f820151611f545f850182611f07565b506020820151611f676020850182611f16565b506040820151611f7a6040850182611f31565b506060820151611f8d6060850182611df6565b50505050565b5f611f9e8383611f40565b60808301905092915050565b5f602082019050919050565b5f611fc082611ede565b611fca8185611ee8565b9350611fd583611ef8565b805f5b83811015612005578151611fec8882611f93565b9750611ff783611faa565b925050600181019050611fd8565b5085935050505092915050565b5f6040820190506120255f830185611ecf565b81810360208301526120378184611fb6565b90509392505050565b5f5f6040838503121561205657612055611958565b5b5f612063858286016119a6565b9250506020612074858286016119d9565b9150509250929050565b5f8160070b9050919050565b6120938161207e565b811461209d575f5ffd5b50565b5f813590506120ae8161208a565b92915050565b5f8160030b9050919050565b6120c9816120b4565b81146120d3575f5ffd5b50565b5f813590506120e4816120c0565b92915050565b6120f381611f25565b81146120fd575f5ffd5b50565b5f8135905061210e816120ea565b92915050565b5f5f5f6060848603121561212b5761212a611958565b5b5f612138868287016120a0565b9350506020612149868287016120d6565b925050604061215a86828701612100565b9150509250925092565b5f6020820190506121775f830184611ecf565b92915050565b5f81519050919050565b5f82825260208201905092915050565b5f819050602082019050919050565b5f6121b18383611f07565b60208301905092915050565b5f602082019050919050565b5f6121d38261217d565b6121dd8185612187565b93506121e883612197565b805f5b838110156122185781516121ff88826121a6565b975061220a836121bd565b9250506001810190506121eb565b5085935050505092915050565b5f6020820190508181035f83015261223d81846121c9565b905092915050565b7f4e487b71000000000000000000000000000000000000000000000000000000005f52601160045260245ffd5b5f8160011c9050919050565b5f5f8291508390505b60018511156122c7578086048111156122a3576122a2612245565b5b60018516156122b25780820291505b80810290506122c085612272565b9450612287565b94509492505050565b5f826122df576001905061239a565b816122ec575f905061239a565b8160018114612302576002811461230c5761233b565b600191505061239a565b60ff84111561231e5761231d612245565b5b8360020a91508482111561233557612334612245565b5b5061239a565b5060208310610133831016604e8410600b84101617156123705782820a90508381111561236b5761236a612245565b5b61239a565b61237d848484600161227e565b9250905081840481111561239457612393612245565b5b81810290505b9392505050565b5f6123ab826119ba565b91506123b683611f25565b92506123e37fffffffffffffffffffffffffffffffffffffffffffffffffffffffffffffffff84846122d0565b905092915050565b5f6123f5826119ba565b9150612400836119ba565b925082820261240e816119ba565b9150828204841483151761242557612424612245565b5b5092915050565b7f4e487b71000000000000000000000000000000000000000000000000000000005f52601260045260245ffd5b5f612463826119ba565b915061246e836119ba565b92508261247e5761247d61242c565b5b828204905092915050565b5f612493826119ba565b915061249e836119ba565b92508282019050808211156124b6576124b5612245565b5b92915050565b7f4e487b71000000000000000000000000000000000000000000000000000000005f52603260045260245ffd5b5f815190506124f7816120ea565b92915050565b5f6020828403121561251257612511611958565b5b5f61251f848285016124e9565b91505092915050565b5f612532826120b4565b915061253d836120b4565b925082820190507fffffffffffffffffffffffffffffffffffffffffffffffffffffffff800000008112637fffffff8213171561257d5761257c612245565b5b92915050565b5f63ffffffff82169050919050565b5f61259c826119ba565b91506125a783612583565b92506125d47fffffffffffffffffffffffffffffffffffffffffffffffffffffffffffffffff84846122d0565b905092915050565b5f6125e6826119ba565b91506125f1836119ba565b925061261e7fffffffffffffffffffffffffffffffffffffffffffffffffffffffffffffffff84846122d0565b905092915050565b61262f8161197f565b82525050565b5f6040820190506126485f830185612626565b6126556020830184611ecf565b9392505050565b5f8115159050919050565b6126708161265c565b811461267a575f5ffd5b50565b5f8151905061268b81612667565b92915050565b5f602082840312156126a6576126a5611958565b5b5f6126b38482850161267d565b91505092915050565b5f82825260208201905092915050565b5f819050919050565b5f82825260208201905092915050565b828183375f83830152505050565b5f6126fe83856126d5565b935061270b8385846126e5565b61271483611a4e565b840190509392505050565b5f61272b8484846126f3565b90509392505050565b5f5ffd5b5f5ffd5b5f5ffd5b5f5f8335600160200384360303811261275c5761275b61273c565b5b83810192508235915060208301925067ffffffffffffffff82111561278457612783612734565b5b60018202360383131561279a57612799612738565b5b509250929050565b5f602082019050919050565b5f6127b983856126bc565b9350836020840285016127cb846126cc565b805f5b878110156128105784840389526127e58284612740565b6127f086828461271f565b95506127fb846127a2565b935060208b019a5050506001810190506127ce565b50829750879450505050509392505050565b5f6020820190508181035f83015261283b8184866127ae565b90509392505050565b5f81519050612852816119c3565b92915050565b5f6020828403121561286d5761286c611958565b5b5f61287a84828501612844565b91505092915050565b5f81549050919050565b5f819050815f5260205f209050919050565b5f815f1c9050919050565b5f819050919050565b5f6128c56128c08361289f565b6128aa565b9050919050565b5f6128d782546128b3565b9050919050565b5f600182019050919050565b5f6128f482612883565b6128fe8185611dce565b93506129098361288d565b805f5b838110156129405761291d826128cc565b6129278882611e05565b9750612932836128de565b92505060018101905061290c565b5085935050505092915050565b5f81519050919050565b5f82825260208201905092915050565b5f819050602082019050919050565b61297f81611b01565b82525050565b5f6129908383612976565b60208301905092915050565b5f602082019050919050565b5f6129b28261294d565b6129bc8185612957565b93506129c783612967565b805f5b838110156129f75781516129de8882612985565b97506129e98361299c565b9250506001810190506129ca565b5085935050505092915050565b5f6060820190508181035f830152612a1d8186886127ae565b90508181036020830152612a3181856128ea565b90508181036040830152612a4581846129a8565b905095945050505050565b5f81519050919050565b5f819050602082019050919050565b5f7fffffffff0000000000000000000000000000000000000000000000000000000082169050919050565b5f612a9f8251612a69565b80915050919050565b5f82821b905092915050565b5f612abe82612a50565b82612ac884612a5a565b9050612ad381612a94565b92506004821015612b1357612b0e7fffffffff0000000000000000000000000000000000000000000000000000000083600403600802612aa8565b831692505b5050919050565b612b2381611ded565b82525050565b5f604082019050612b3c5f830185612b1a565b612b496020830184611ecf565b9392505050565b5f5ffd5b5f81519050612b628161208a565b92915050565b5f81519050612b7681611b14565b92915050565b5f81519050612b8a816120c0565b92915050565b5f60808284031215612ba557612ba4612b50565b5b612baf6080611abc565b90505f612bbe84828501612b54565b5f830152506020612bd184828501612b68565b6020830152506040612be584828501612b7c565b6040830152506060612bf984828501612844565b60608301525092915050565b5f60808284031215612c1a57612c19611958565b5b5f612c2784828501612b90565b91505092915050565b5f612c3a826119ba565b9150612c45836119ba565b9250828203905081811115612c5d57612c5c612245565b5b92915050565b5f606082019050612c765f830186612626565b612c836020830185612626565b612c906040830184611ecf565b949350505050565b5f602082019050612cab5f830184612626565b9291505056fea2646970667358221220b703d313090a60a3d9e553f7eebb1b39268e03583d6fdd89dc083408afa91b2b64736f6c634300081c0033",
  "linkReferences": {},
  "deployedLinkReferences": {},
  "immutableReferences": {
    "2600": [
      {
        "length": 32,
        "start": 3241
      },
      {
        "length": 32,
        "start": 4941
      },
      {
        "length": 32,
        "start": 5155
      }
    ],
    "2623": [
      {
        "length": 32,
        "start": 3470
      },
      {
        "length": 32,
        "start": 3626
      },
      {
        "length": 32,
        "start": 4146
      },
      {
        "length": 32,
        "start": 6163
      }
    ],
    "2626": [
      {
        "length": 32,
        "start": 4207
      },
      {
        "length": 32,
        "start": 6224
      }
    ]
  },
  "inputSourceName": "project/contracts/VincentAlgorithmicStablecoinEngine.sol",
  "buildInfoId": "solc-0_8_28-ac5bdf126f0848fdebad0afc9c3e9ffcee56ccf6"
}