{
  "_format": "hh3-artifact-1",
  "contractName": "VincentAlgorithmicStablecoin",
  "sourceName": "contracts/VincentAlgorithmicStablecoin.sol",
  "abi": [
    {
      "inputs": [],
      "stateMutability": "nonpayable",
      "type": "constructor"
    },
    {
      "inputs": [
        {
          "internalType": "address",
          "name": "spender",
          "type": "address"
        },
        {
          "internalType": "uint256",
          "name": "allowance",
          "type": "uint256"
        },
        {
          "internalType": "uint256",
          "name": "needed",
          "type": "uint256"
        }
      ],
      "name": "ERC20InsufficientAllowance",
      "type": "error"
    },
    {
      "inputs": [
        {
          "internalType": "address",
          "name": "sender",
          "type": "address"
        },
        {
          "internalType": "uint256",
          "name": "balance",
          "type": "uint256"
        },
        {
          "internalType": "uint256",
          "name": "needed",
          "type": "uint256"
        }
      ],
      "name": "ERC20InsufficientBalance",
      "type": "error"
    },
    {
      "inputs": [
        {
          "internalType": "address",
          "name": "approver",
          "type": "address"
        }
      ],
      "name": "ERC20InvalidApprover",
      "type": "error"
    },
    {
      "inputs": [
        {
          "internalType": "address",
          "name": "receiver",
          "type": "address"
        }
      ],
      "name": "ERC20InvalidReceiver",
      "type": "error"
    },
    {
      "inputs": [
        {
          "internalType": "address",
          "name": "sender",
          "type": "address"
        }
      ],
      "name": "ERC20InvalidSender",
      "type": "error"
    },
    {
      "inputs": [
        {
          "internalType": "address",
          "name": "spender",
          "type": "address"
        }
      ],
      "name": "ERC20InvalidSpender",
      "type": "error"
    },
    {
      "inputs": [
        {
          "internalType": "address",
          "name": "owner",
          "type": "address"
        }
      ],
      "name": "OwnableInvalidOwner",
      "type": "error"
    },
    {
      "inputs": [
        {
          "internalType": "address",
          "name": "account",
          "type": "address"
        }
      ],
      "name": "OwnableUnauthorizedAccount",
      "type": "error"
    },
    {
      "inputs": [],
      "name": "VincentAlgorithmicStablecoin_MustBeMoreThanZero",
      "type": "error"
    },
    {
      "inputs": [],
      "name": "VincentAlgorithmicStablecoin_NotZeroAddress",
      "type": "error"
    },
    {
      "anonymous": false,
      "inputs": [
        {
          "indexed": true,
          "internalType": "address",
          "name": "owner",
          "type": "address"
        },
        {
          "indexed": true,
          "internalType": "address",
          "name": "spender",
          "type": "address"
        },
        {
          "indexed": false,
          "internalType": "uint256",
          "name": "value",
          "type": "uint256"
        }
      ],
      "name": "Approval",
      "type": "event"
    },
    {
      "anonymous": false,
      "inputs": [
        {
          "indexed": true,
          "internalType": "address",
          "name": "previousOwner",
          "type": "address"
        },
        {
          "indexed": true,
          "internalType": "address",
          "name": "newOwner",
          "type": "address"
        }
      ],
      "name": "OwnershipTransferred",
      "type": "event"
    },
    {
      "anonymous": false,
      "inputs": [
        {
          "indexed": true,
          "internalType": "address",
          "name": "from",
          "type": "address"
        },
        {
          "indexed": true,
          "internalType": "address",
          "name": "to",
          "type": "address"
        },
        {
          "indexed": false,
          "internalType": "uint256",
          "name": "value",
          "type": "uint256"
        }
      ],
      "name": "Transfer",
      "type": "event"
    },
    {
      "inputs": [
        {
          "internalType": "address",
          "name": "owner",
          "type": "address"
        },
        {
          "internalType": "address",
          "name": "spender",
          "type": "address"
        }
      ],
      "name": "allowance",
      "outputs": [
        {
          "internalType": "uint256",
          "name": "",
          "type": "uint256"
        }
      ],
      "stateMutability": "view",
      "type": "function"
    },
    {
      "inputs": [
        {
          "internalType": "address",
          "name": "spender",
          "type": "address"
        },
        {
          "internalType": "uint256",
          "name": "value",
          "type": "uint256"
        }
      ],
      "name": "approve",
      "outputs": [
        {
          "internalType": "bool",
          "name": "",
          "type": "bool"
        }
      ],
      "stateMutability": "nonpayable",
      "type": "function"
    },
    {
      "inputs": [
        {
          "internalType": "address",
          "name": "account",
          "type": "address"
        }
      ],
      "name": "balanceOf",
      "outputs": [
        {
          "internalType": "uint256",
          "name": "",
          "type": "uint256"
        }
      ],
      "stateMutability": "view",
      "type": "function"
    },
    {
      "inputs": [
        {
          "internalType": "uint256",
          "name": "amount",
          "type": "uint256"
        }
      ],
      "name": "burn",
      "outputs": [],
      "stateMutability": "nonpayable",
      "type": "function"
    },
    {
      "inputs": [
        {
          "internalType": "address",
          "name": "account",
          "type": "address"
        },
        {
          "internalType": "uint256",
          "name": "value",
          "type": "uint256"
        }
      ],
      "name": "burnFrom",
      "outputs": [],
      "stateMutability": "nonpayable",
      "type": "function"
    },
    {
      "inputs": [],
      "name": "decimals",
      "outputs": [
        {
          "internalType": "uint8",
          "name": "",
          "type": "uint8"
        }
      ],
      "stateMutability": "view",
      "type": "function"
    },
    {
      "inputs": [
        {
          "internalType": "address",
          "name": "to",
          "type": "address"
        },
        {
          "internalType": "uint256",
          "name": "amount",
          "type": "uint256"
        }
      ],
      "name": "mint",
      "outputs": [
        {
          "internalType": "bool",
          "name": "",
          "type": "bool"
        }
      ],
      "stateMutability": "nonpayable",
      "type": "function"
    },
    {
      "inputs": [],
      "name": "name",
      "outputs": [
        {
          "internalType": "string",
          "name": "",
          "type": "string"
        }
      ],
      "stateMutability": "view",
      "type": "function"
    },
    {
      "inputs": [],
      "name": "owner",
      "outputs": [
        {
          "internalType": "address",
          "name": "",
          "type": "address"
        }
      ],
      "stateMutability": "view",
      "type": "function"
    },
    {
      "inputs": [],
      "name": "renounceOwnership",
      "outputs": [],
      "stateMutability": "nonpayable",
      "type": "function"
    },
    {
      "inputs": [],
      "name": "symbol",
      "outputs": [
        {
          "internalType": "string",
          "name": "",
          "type": "string"
        }
      ],
      "stateMutability": "view",
      "type": "function"
    },
    {
      "inputs": [],
      "name": "totalSupply",
      "outputs": [
        {
          "internalType": "uint256",
          "name": "",
          "type": "uint256"
        }
      ],
      "stateMutability": "view",
      "type": "function"
    },
    {
      "inputs": [
        {
          "internalType": "address",
          "name": "to",
          "type": "address"
        },
        {
          "internalType": "uint256",
          "name": "value",
          "type": "uint256"
        }
      ],
      "name": "transfer",
      "outputs": [
        {
          "internalType": "bool",
          "name": "",
          "type": "bool"
        }
      ],
      "stateMutability": "nonpayable",
      "type": "function"
    },
    {
      "inputs": [
        {
          "internalType": "address",
          "name": "from",
          "type": "address"
        },
        {
          "internalType": "address",
          "name": "to",
          "type": "address"
        },
        {
          "internalType": "uint256",
          "name": "value",
          "type": "uint256"
        }
      ],
      "name": "transferFrom",
      "outputs": [
        {
          "internalType": "bool",
          "name": "",
          "type": "bool"
        }
      ],
      "stateMutability": "nonpayable",
      "type": "function"
    },
    {
      "inputs": [
        {
          "internalType": "address",
          "name": "newOwner",
          "type": "address"
        }
      ],
      "name": "transferOwnership",
      "outputs": [],
      "stateMutability": "nonpayable",
      "type": "function"
    }
  ],
  "bytecode": "0x608060405234801561000f575f5ffd5b50336040518060400160405280601c81526020017f56696e63656e74416c676f726974686d6963537461626c65636f696e000000008152506040518060400160405280600381526020017f5641530000000000000000000000000000000000000000000000000000000000815250816003908161008c9190610424565b50806004908161009c9190610424565b5050505f73ffffffffffffffffffffffffffffffffffffffff168173ffffffffffffffffffffffffffffffffffffffff160361010f575f6040517f1e4fbdf70000000000000000000000000000000000000000000000000000000081526004016101069190610532565b60405180910390fd5b61011e8161012460201b60201c565b5061054b565b5f60055f9054906101000a900473ffffffffffffffffffffffffffffffffffffffff1690508160055f6101000a81548173ffffffffffffffffffffffffffffffffffffffff021916908373ffffffffffffffffffffffffffffffffffffffff1602179055508173ffffffffffffffffffffffffffffffffffffffff168173ffffffffffffffffffffffffffffffffffffffff167f8be0079c531659141344cd1fd0a4f28419497f9722a3daafe3b4186f6b6457e060405160405180910390a35050565b5f81519050919050565b7f4e487b71000000000000000000000000000000000000000000000000000000005f52604160045260245ffd5b7f4e487b71000000000000000000000000000000000000000000000000000000005f52602260045260245ffd5b5f600282049050600182168061026257607f821691505b6020821081036102755761027461021e565b5b50919050565b5f819050815f5260205f209050919050565b5f6020601f8301049050919050565b5f82821b905092915050565b5f600883026102d77fffffffffffffffffffffffffffffffffffffffffffffffffffffffffffffffff8261029c565b6102e1868361029c565b95508019841693508086168417925050509392505050565b5f819050919050565b5f819050919050565b5f61032561032061031b846102f9565b610302565b6102f9565b9050919050565b5f819050919050565b61033e8361030b565b61035261034a8261032c565b8484546102a8565b825550505050565b5f5f905090565b61036961035a565b610374818484610335565b505050565b5b818110156103975761038c5f82610361565b60018101905061037a565b5050565b601f8211156103dc576103ad8161027b565b6103b68461028d565b810160208510156103c5578190505b6103d96103d18561028d565b830182610379565b50505b505050565b5f82821c905092915050565b5f6103fc5f19846008026103e1565b1980831691505092915050565b5f61041483836103ed565b9150826002028217905092915050565b61042d826101e7565b67ffffffffffffffff811115610446576104456101f1565b5b610450825461024b565b61045b82828561039b565b5f60209050601f83116001811461048c575f841561047a578287015190505b6104848582610409565b8655506104eb565b601f19841661049a8661027b565b5f5b828110156104c15784890151825560018201915060208501945060208101905061049c565b868310156104de57848901516104da601f8916826103ed565b8355505b6001600288020188555050505b505050505050565b5f73ffffffffffffffffffffffffffffffffffffffff82169050919050565b5f61051c826104f3565b9050919050565b61052c81610512565b82525050565b5f6020820190506105455f830184610523565b92915050565b61143c806105585f395ff3fe608060405234801561000f575f5ffd5b50600436106100f3575f3560e01c806370a082311161009557806395d89b411161006457806395d89b4114610271578063a9059cbb1461028f578063dd62ed3e146102bf578063f2fde38b146102ef576100f3565b806370a08231146101fd578063715018a61461022d57806379cc6790146102375780638da5cb5b14610253576100f3565b806323b872dd116100d157806323b872dd14610163578063313ce5671461019357806340c10f19146101b157806342966c68146101e1576100f3565b806306fdde03146100f7578063095ea7b31461011557806318160ddd14610145575b5f5ffd5b6100ff61030b565b60405161010c9190610ffc565b60405180910390f35b61012f600480360381019061012a91906110ad565b61039b565b60405161013c9190611105565b60405180910390f35b61014d6103bd565b60405161015a919061112d565b60405180910390f35b61017d60048036038101906101789190611146565b6103c6565b60405161018a9190611105565b60405180910390f35b61019b6103f4565b6040516101a891906111b1565b60405180910390f35b6101cb60048036038101906101c691906110ad565b6103fc565b6040516101d89190611105565b60405180910390f35b6101fb60048036038101906101f691906111ca565b6104b7565b005b610217600480360381019061021291906111f5565b610554565b604051610224919061112d565b60405180910390f35b610235610599565b005b610251600480360381019061024c91906110ad565b6105ac565b005b61025b6105cc565b604051610268919061122f565b60405180910390f35b6102796105f4565b6040516102869190610ffc565b60405180910390f35b6102a960048036038101906102a491906110ad565b610684565b6040516102b69190611105565b60405180910390f35b6102d960048036038101906102d49190611248565b6106a6565b6040516102e6919061112d565b60405180910390f35b610309600480360381019061030491906111f5565b610728565b005b60606003805461031a906112b3565b80601f0160208091040260200160405190810160405280929190818152602001828054610346906112b3565b80156103915780601f1061036857610100808354040283529160200191610391565b820191905f5260205f20905b81548152906001019060200180831161037457829003601f168201915b5050505050905090565b5f5f6103a56107ac565b90506103b28185856107b3565b600191505092915050565b5f600254905090565b5f5f6103d06107ac565b90506103dd8582856107c5565b6103e8858585610858565b60019150509392505050565b5f6012905090565b5f610405610948565b5f73ffffffffffffffffffffffffffffffffffffffff168373ffffffffffffffffffffffffffffffffffffffff160361046a576040517f89d7a5f900000000000000000000000000000000000000000000000000000000815260040160405180910390fd5b5f82116104a3576040517f8d77c88c00000000000000000000000000000000000000000000000000000000815260040160405180910390fd5b6104ad83836109cf565b6001905092915050565b6104bf610948565b5f81116104f8576040517f8d77c88c00000000000000000000000000000000000000000000000000000000815260040160405180910390fd5b5f61050233610554565b905081811015610547576040517f08c379a000000000000000000000000000000000000000000000000000000000815260040161053e90611353565b60405180910390fd5b61055082610a4e565b5050565b5f5f5f8373ffffffffffffffffffffffffffffffffffffffff1673ffffffffffffffffffffffffffffffffffffffff1681526020019081526020015f20549050919050565b6105a1610948565b6105aa5f610a62565b565b6105be826105b86107ac565b836107c5565b6105c88282610b25565b5050565b5f60055f9054906101000a900473ffffffffffffffffffffffffffffffffffffffff16905090565b606060048054610603906112b3565b80601f016020809104026020016040519081016040528092919081815260200182805461062f906112b3565b801561067a5780601f106106515761010080835404028352916020019161067a565b820191905f5260205f20905b81548152906001019060200180831161065d57829003601f168201915b5050505050905090565b5f5f61068e6107ac565b905061069b818585610858565b600191505092915050565b5f60015f8473ffffffffffffffffffffffffffffffffffffffff1673ffffffffffffffffffffffffffffffffffffffff1681526020019081526020015f205f8373ffffffffffffffffffffffffffffffffffffffff1673ffffffffffffffffffffffffffffffffffffffff1681526020019081526020015f2054905092915050565b610730610948565b5f73ffffffffffffffffffffffffffffffffffffffff168173ffffffffffffffffffffffffffffffffffffffff16036107a0575f6040517f1e4fbdf7000000000000000000000000000000000000000000000000000000008152600401610797919061122f565b60405180910390fd5b6107a981610a62565b50565b5f33905090565b6107c08383836001610ba4565b505050565b5f6107d084846106a6565b90507fffffffffffffffffffffffffffffffffffffffffffffffffffffffffffffffff8110156108525781811015610843578281836040517ffb8f41b200000000000000000000000000000000000000000000000000000000815260040161083a93929190611371565b60405180910390fd5b61085184848484035f610ba4565b5b50505050565b5f73ffffffffffffffffffffffffffffffffffffffff168373ffffffffffffffffffffffffffffffffffffffff16036108c8575f6040517f96c6fd1e0000000000000000000000000000000000000000000000000000000081526004016108bf919061122f565b60405180910390fd5b5f73ffffffffffffffffffffffffffffffffffffffff168273ffffffffffffffffffffffffffffffffffffffff1603610938575f6040517fec442f0500000000000000000000000000000000000000000000000000000000815260040161092f919061122f565b60405180910390fd5b610943838383610d73565b505050565b6109506107ac565b73ffffffffffffffffffffffffffffffffffffffff1661096e6105cc565b73ffffffffffffffffffffffffffffffffffffffff16146109cd576109916107ac565b6040517f118cdaa70000000000000000000000000000000000000000000000000000000081526004016109c4919061122f565b60405180910390fd5b565b5f73ffffffffffffffffffffffffffffffffffffffff168273ffffffffffffffffffffffffffffffffffffffff1603610a3f575f6040517fec442f05000000000000000000000000000000000000000000000000000000008152600401610a36919061122f565b60405180910390fd5b610a4a5f8383610d73565b5050565b610a5f610a596107ac565b82610b25565b50565b5f60055f9054906101000a900473ffffffffffffffffffffffffffffffffffffffff1690508160055f6101000a81548173ffffffffffffffffffffffffffffffffffffffff021916908373ffffffffffffffffffffffffffffffffffffffff1602179055508173ffffffffffffffffffffffffffffffffffffffff168173ffffffffffffffffffffffffffffffffffffffff167f8be0079c531659141344cd1fd0a4f28419497f9722a3daafe3b4186f6b6457e060405160405180910390a35050565b5f73ffffffffffffffffffffffffffffffffffffffff168273ffffffffffffffffffffffffffffffffffffffff1603610b95575f6040517f96c6fd1e000000000000000000000000000000000000000000000000000000008152600401610b8c919061122f565b60405180910390fd5b610ba0825f83610d73565b5050565b5f73ffffffffffffffffffffffffffffffffffffffff168473ffffffffffffffffffffffffffffffffffffffff1603610c14575f6040517fe602df05000000000000000000000000000000000000000000000000000000008152600401610c0b919061122f565b60405180910390fd5b5f73ffffffffffffffffffffffffffffffffffffffff168373ffffffffffffffffffffffffffffffffffffffff1603610c84575f6040517f94280d62000000000000000000000000000000000000000000000000000000008152600401610c7b919061122f565b60405180910390fd5b8160015f8673ffffffffffffffffffffffffffffffffffffffff1673ffffffffffffffffffffffffffffffffffffffff1681526020019081526020015f205f8573ffffffffffffffffffffffffffffffffffffffff1673ffffffffffffffffffffffffffffffffffffffff1681526020019081526020015f20819055508015610d6d578273ffffffffffffffffffffffffffffffffffffffff168473ffffffffffffffffffffffffffffffffffffffff167f8c5be1e5ebec7d5bd14f71427d1e84f3dd0314c0f7b2291e5b200ac8c7c3b92584604051610d64919061112d565b60405180910390a35b50505050565b5f73ffffffffffffffffffffffffffffffffffffffff168373ffffffffffffffffffffffffffffffffffffffff1603610dc3578060025f828254610db791906113d3565b92505081905550610e91565b5f5f5f8573ffffffffffffffffffffffffffffffffffffffff1673ffffffffffffffffffffffffffffffffffffffff1681526020019081526020015f2054905081811015610e4c578381836040517fe450d38c000000000000000000000000000000000000000000000000000000008152600401610e4393929190611371565b60405180910390fd5b8181035f5f8673ffffffffffffffffffffffffffffffffffffffff1673ffffffffffffffffffffffffffffffffffffffff1681526020019081526020015f2081905550505b5f73ffffffffffffffffffffffffffffffffffffffff168273ffffffffffffffffffffffffffffffffffffffff1603610ed8578060025f8282540392505081905550610f22565b805f5f8473ffffffffffffffffffffffffffffffffffffffff1673ffffffffffffffffffffffffffffffffffffffff1681526020019081526020015f205f82825401925050819055505b8173ffffffffffffffffffffffffffffffffffffffff168373ffffffffffffffffffffffffffffffffffffffff167fddf252ad1be2c89b69c2b068fc378daa952ba7f163c4a11628f55a4df523b3ef83604051610f7f919061112d565b60405180910390a3505050565b5f81519050919050565b5f82825260208201905092915050565b8281835e5f83830152505050565b5f601f19601f8301169050919050565b5f610fce82610f8c565b610fd88185610f96565b9350610fe8818560208601610fa6565b610ff181610fb4565b840191505092915050565b5f6020820190508181035f8301526110148184610fc4565b905092915050565b5f5ffd5b5f73ffffffffffffffffffffffffffffffffffffffff82169050919050565b5f61104982611020565b9050919050565b6110598161103f565b8114611063575f5ffd5b50565b5f8135905061107481611050565b92915050565b5f819050919050565b61108c8161107a565b8114611096575f5ffd5b50565b5f813590506110a781611083565b92915050565b5f5f604083850312156110c3576110c261101c565b5b5f6110d085828601611066565b92505060206110e185828601611099565b9150509250929050565b5f8115159050919050565b6110ff816110eb565b82525050565b5f6020820190506111185f8301846110f6565b92915050565b6111278161107a565b82525050565b5f6020820190506111405f83018461111e565b92915050565b5f5f5f6060848603121561115d5761115c61101c565b5b5f61116a86828701611066565b935050602061117b86828701611066565b925050604061118c86828701611099565b9150509250925092565b5f60ff82169050919050565b6111ab81611196565b82525050565b5f6020820190506111c45f8301846111a2565b92915050565b5f602082840312156111df576111de61101c565b5b5f6111ec84828501611099565b91505092915050565b5f6020828403121561120a5761120961101c565b5b5f61121784828501611066565b91505092915050565b6112298161103f565b82525050565b5f6020820190506112425f830184611220565b92915050565b5f5f6040838503121561125e5761125d61101c565b5b5f61126b85828601611066565b925050602061127c85828601611066565b9150509250929050565b7f4e487b71000000000000000000000000000000000000000000000000000000005f52602260045260245ffd5b5f60028204905060018216806112ca57607f821691505b6020821081036112dd576112dc611286565b5b50919050565b7f45524332303a206275726e20616d6f756e7420657863656564732062616c616e5f8201527f6365000000000000000000000000000000000000000000000000000000000000602082015250565b5f61133d602283610f96565b9150611348826112e3565b604082019050919050565b5f6020820190508181035f83015261136a81611331565b9050919050565b5f6060820190506113845f830186611220565b611391602083018561111e565b61139e604083018461111e565b949350505050565b7f4e487b71000000000000000000000000000000000000000000000000000000005f52601160045260245ffd5b5f6113dd8261107a565b91506113e88361107a565b9250828201905080821115611400576113ff6113a6565b5b9291505056fea2646970667358221220b6d8d04c98e0e9f5a877d00735ca78d995a6ed39b137a044327eea5d7d30ef8e64736f6c634300081c0033",
  "linkReferences": {},
  "deployedLinkReferences": {},
  "immutableReferences": {},
  "inputSourceName": "project/contracts/VincentAlgorithmicStablecoin.sol",
  "buildInfoId": "solc-0_8_28-d79a090baa6f7b8af509bb17ffe39801069c71bd"
}